:1000000009C1F2C222C121C120C11FC11EC11DC12F
:1000100060C31BC11AC146C318C117C116C115C19F
:1000200014C14D614B653F40000000004E6F7420CD
:1000300057617200000000000000005F0000000730
:10004000000700147F147F14242A7F2A1223130828
:10005000646236495522500005030000001C22410D
:10006000000041221C0014083E081408083E08083D
:1000700000503000000808080808006060000020F8
:10008000100804023E5149453E00427F4000426153
:100090005149462141454B311814127F10274545DF
:1000A00045393C4A494930017109050336494949F6
:1000B00036064949291E0036360000005636000033
:1000C00008142241001414141414004122140800CE
:1000D00000060F1F7C7C3E1F0F7E1111117E7F4991
:1000E0004949363E414141227F4141221C7F4949D5
:1000F00049417F090909013E4149497A7F080808B9
:100100007F00417F41002040413F017F0814224190
:100110007F404040407F020C027F7F0408107F3EFA
:100120004141413E7F090909063E4151215E7F0957
:10013000192946464949493101017F01013F4040A3
:10014000403F1F2040201F3F4038403F63140814A9
:100150006307087008076151494543007F4141002A
:1001600002040810200041417F0004020102044003
:1001700040404040000102040020545454787F481D
:100180004444383844444420384444487F38545424
:100190005418087E0901020C5252523E7F08040492
:1001A0007800447D40002040443D007F10284400FA
:1001B00000417F40007C041804787C0804047838EF
:1001C000444444387C14141408081414187C7C0823
:1001D0000404084854545420043F4440203C404008
:1001E000207C1C2040201C3C4030403C44281028EF
:1001F000440C5050503C4464544C44000836410078
:1002000000007F0000004136080010080810087840
:100210004641467811241FBECFE5D1E0DEBFCDBFF9
:1002200010E0A0E6B0E0EAE7F7E002C005900D922A
:10023000A436B107D9F710E0A4E6B0E001C01D92E2
:10024000A53DB107E1F7C0D196C2DACE91E09EBDDF
:1002500082E083BF99BF9CB980E48BBF83E085BFF8
:100260007894089580916400823210F490E008C080
:100270008091640090E0883C08F091E081E098274C
:10028000892F08951092690040E050E0682F70E0D7
:10029000E7E0F0E020916900CF01841B950BDB01C2
:1002A00002C0B595A7958A95E2F7CD01817090704F
:1002B000042E02C0880F991F0A94E2F7282B20937E
:1002C00069004F5F5F4F4830510521F78091690009
:1002D000809580936900809169008BBB089510928E
:1002E0006B0010926C0010926D0010926E001092D4
:1002F0006C000BC0E0916C00F0E0EF58FF4F1082F3
:1003000080916C008F5F80936C0080916C008436CC
:1003100088F380916A00813011F489E005C08091F2
:100320006A00823019F487E080936E0010926B00AF
:1003300046E03EE36CC080916A00813039F4E09180
:100340006B00F0E0EE5DFF4FE4910AC080916A001F
:10035000823041F4E0916B00F0E0E45DFF4FE49106
:10036000E0936D0010926C002AC080916D00803285
:1003700008F180916D0087FD1DC080916B00A091F8
:100380006C00B0E0119690E066E070E0E2D1A80F5A
:10039000B91F80916D0020916C0090E065E070E0E5
:1003A000D8D1FC01E20FF11DEC56F040E491AF58BA
:1003B000BF4FEC9380916C008F5F80936C008091B5
:1003C0006C00853090F280916D008F3361F48091E4
:1003D0006B0090E0019666E070E0BBD1FC01EF5845
:1003E000FF4F30830FC080916D00803459F48091AD
:1003F0006B0090E0019666E070E0ABD1FC01EF5835
:10040000FF4F408380916B008F5F80936B009091D2
:100410006B0080916E00981708F48DCF0895CF93EC
:10042000DF935DDFCAE2D0E0A7E0B0E098C01092B1
:10043000690090E080916900809369009F5F983027
:10044000C9F785C0809167009091680080FD87C0E2
:1004500080916A008130C9F580916600873350F53C
:10046000E0916600F0E0EF58FF4F80818F771092A7
:10047000690040E050E0682F70E020916900CD01F4
:10048000841B950BFB0102C0F595E7958A95E2F771
:10049000CF0181709070042E02C0880F991F0A94BA
:1004A000E2F7282B209369004F5F5F4F48305105DA
:1004B00021F74DC01092690090E08091690080930F
:1004C00069009F5F9830C9F742C080916A0082300E
:1004D00009F045C0809166009E01281B310937FD57
:1004E0002CC080916600FE01E81BF109EF58FF4F18
:1004F00080818F771092690040E050E0682F70E0B3
:1005000020916900CD01841B950BFB0102C0F5957C
:10051000E7958A95E2F7CF0181709070042E02C0B2
:10052000880F991F0A94E2F7282B209369004F5FE8
:100530005F4F4830510521F70AC01092690090E0E2
:1005400080916900809369009F5F9830C9F780911E
:100550006900809580936900809169008BBB8091D0
:100560006400823210F180916400883CF0F4809144
:1005700067009091680096958795809366008091BA
:1005800067009091680080FD52CF5CCF8091690038
:10059000809369009F5F9830C9F7809169008095CA
:1005A00080936900809169008BBB809164008232E6
:1005B00020F080916400883C20F01092690090E067
:1005C000E5CFDF91CF9108958FEF8ABB8BBB91E090
:1005D0009EBD82E083BF99BF9CB980E48BBF83E05E
:1005E00085BF78941CDFFECF1F920F920FB60F923B
:1005F00011242F933F934F935F936F937F938F9328
:100600009F93AF93BF9310926F00109270008091F0
:100610006500809364008091670090916800813A42
:100620009105B0F08091640090E065E070E091D0B9
:10063000AA2797FDA095BA2F809360009093610040
:10064000A0936200B093630010926800109267005C
:100650001092650030E020E090E04AE0B19B02C0DB
:100660002F5F02C0B19B3F5F842F8A95F1F79F5F98
:100670009330A1F7231710F482E003C0321718F467
:1006800081E080936A00BF91AF919F918F917F919C
:100690006F915F914F913F912F910F900FBE0F90EF
:1006A0001F9018951F920F920FB60F9211248F93DF
:1006B00082E882BF809165008F3F19F080916500CC
:1006C0008F5F809365008F910F900FBE0F901F90EA
:1006D00018951F920F920FB60F9211248F939F932C
:1006E000AF93BF938091600090916100A0916200F0
:1006F000B0916300892F9A2FAB2FBB2780958DBDBA
:100700008091600090916100A0916200B0916300BF
:1007100080958CBD8091670090916800883C910520
:1007200030F48091670090916800019605C0809137
:10073000670090916800019790936800809367002C
:10074000BF91AF919F918F910F900FBE0F901F900F
:1007500018955527002480FF02C0060E571F660F0C
:10076000771F6115710521F096958795009799F788
:0A077000952F802D0895F894FFCF17
:04077A005802000021
:00000001FF
